S012000055736172745F746573742E73726563E4
S11300000C9456000C946B000C946B000C946B00D5
S11300100C946B000C946B000C946B000C946B00B0
S11300200C946B000C946B000C946B000C946B00A0
S11300300C946B000C946B000C946B000C946B0090
S11300400C946B000C946B000C946B000C946B0080
S11300500C946B000C946B000C946B000C946B0070
S11300600C946B000C946B000C946B000C946B0060
S11300700C946B000C946B000C946B000C946B0050
S11300800C946B000C946B000C946B000C946B0040
S11300900C946B000C946B000C946B000C946B0030
S11300A00C94EA000C946B000C946B0011241FBE9A
S11300B0CFEFCDBFDFE2DEBF10E2A0E0B0E2E8EFB9
S11300C0F1E002C005900D92A630B107D9F70E9465
S11300D06D000C94FA000C940000E0E5F0E08081DF
S11300E082608083818181FFFDCF88ED84BF81E0C0
S11300F080934000E0E5F0E080818E7F8083808102
S113010084608083818182FFFDCFE0E5F0E0168288
S1130110E0E6F0E0808181608083E0EBF0E08481C0
S1130120827F81608483A0E4B6E080E811968C939A
S113013011979481927F9160948311968C93E0E659
S1130140F6E081838583868580618687E0ECF9E02B
S11301508CE0868380E4878383818B7F83838381A0
S11301608861838383E084838481877F8483158289
S113017082818F7C80618283E0EAF0E08281816009
S11301808283789481E0E0E0F6E08183C0E0D6E009
S113019031E0532F82E090E241E6E0ECF9E05D8348
S11301A0DC01242F2083218125FD03C0218126FF2A
S11301B0FDCF2181206421832D912111F3CF3E8332
S11301C02FEF63ED70E3215060407040E1F700C011
S11301D00000E5CF1F920F920FB60F9211248F9358
S11301E08091C009809300208F910F900FBE0F90D3
S10B01F01F901895F894FFCF4D
S10901F82A6162630A00A3
S9030000FC
