S01900007573696E675F6174786D656761333265352E73726563A0
S11300000C9456000C946B000C946B000C946B00D5
S11300100C946B000C946B000C946B000C946B00B0
S11300200C946B000C946B000C946B000C946B00A0
S11300300C946B000C946B000C946B000C946B0090
S11300400C946B000C946B000C946B000C946B0080
S11300500C946B000C946B000C946B000C946B0070
S11300600C946B000C946B000C946B000C946B0060
S11300700C946B000C946B000C946B000C946B0050
S11300800C946B000C946B000C946B000C946B0040
S11300900C946B000C946B000C946B000C946B0030
S11300A00C94D3000C946B000C946B0011241FBEB1
S11300B0CFEFCDBFDFE2DEBF10E2A0E0B0E2EAECBA
S11300C0F1E002C005900D92A230B107D9F70E9469
S11300D080000C94E3000C940000E0E6F6E081E07C
S11300E0828384E0828388E1808B828B0895E0E6BA
S11300F0F6E090E2918380E181839683868308957C
S1130100E0E5F0E0808182608083818181FFFDCF22
S113011088ED84BF81E080934000E0E5F0E08081D9
S11301208E7F8083808184608083818182FFFDCF84
S1130130E0E5F0E01682E0E6F0E080818160808313
S11301400E946D000E947700E0EAF0E08281816005
S113015082837894E0E6F6E091E084E040E130E2E6
S11301602FEF53ED60E3215050406040E1F700C0B1
S11301700000958385832FEF53ED60E321505040B9
S11301806040E1F700C0000096838683208520FF4D
S113019002C0478301C04783208522FF02C0378302
S11301A0DFCF3783DDCF1F920F920FB60F9211244A
S11301B08F938091C009809300208F910F900FBE80
S10D01C00F901F901895F894FFCFDC
S10501CA2A0005
S9030000FC
