S00B00004144432E7372656351
S11300000C9456000C9473000C9473000C947300BD
S11300100C9473000C9473000C9473000C94730090
S11300200C9473000C9473000C9473000C94730080
S11300300C9473000C9473000C9473000C94730070
S11300400C9473000C9473000C9473000C94730060
S11300500C9473000C9473000C9473000C94730050
S11300600C9473000C9473000C9473000C94730040
S11300700C9473000C9473000C9473000C94730030
S11300800C9473000C9473000C9473000C94730020
S11300900C9473000C9473000C9473000C94730010
S11300A00C9465010C9473000C94730011241FBE0E
S11300B0CFEFCDBFDFE2DEBF10E2A0E0B0E2ECEFB5
S11300C0F2E002C005900D92A430B107D9F720E206
S11300D0A4E0B0E201C01D92A633B207E1F70E948A
S11300E0E9000C947C010C94000021E0E0E0F6E0CF
S11300F02583FC012081222389F0DC011196E0ECA8
S1130100F9E02083818185FD03C0818186FFFDCFD5
S11301108181806481832D912111F3CF81E0E0E01E
S1130120F6E0868308958EEF8093000687E080933F
S113013010060895AAECB1E022E02C93FC0184910E
S11301401C9208950F931F93CF93DF93182F062FBC
S11301508091000280FD1AC0C0E0D2E081E0888373
S113016080E189831A821B8283E08C8380E290E0A1
S11301700E949A008C8781E290E00E949A008D8709
S11301808FE79CE00197F1F700C00000E0E0F2E0A7
S113019000A3110F110F110F11A312A280A18068E7
S11301A080A386818823E9F3E0E0F2E086818683F8
S11301B080A1806880A386818823E9F3E0E0F2E0EF
S11301C08681868380899189DF91CF911F910F91D8
S11301D00895E0E5F0E0808182608083818181FF81
S11301E0FDCF88ED84BF81E080934000E0E5F0E03E
S11301F080818E7F8083808184608083818182FF7F
S1130200FDCFE0E5F0E01682E0E6F0E08081816079
S113021080830E949300E0EBF0E08481827F816020
S11302208483A0E4B6E080E811968C9311979481BE
S1130230927F9160948311968C93E0E6F6E081833B
S11302408583868580618687E0ECF9E08CE086838F
S113025080E4878383818B7F838383818861838325
S113026083E084838481877F8483158282818F7C69
S113027080618283E0EAF0E0828181608283789405
S113028081E0E0E0F6E08183C4E0D0E212E3FE0125
S1130290212F11922A95E9F761E081E00E94A200E2
S11302A0BC01CE010E947501CE010E94750081E05F
S11302B090E20E9475008FEF97EAE1E6815090404A
S11302C0E040E1F700C00000E2CF1F920F920FB6AA
S11302D00F9211248F938091C009809300208F91F5
S11302E00F900FBE0F901F901895FB01DC01019039
S10F02F00D920020E1F70895F894FFCF70
S10702FC2A0A0000C6
S9030000FC
