S012000055736172745F746573742E73726563E4
S11300000C9456000C946B000C946B000C946B00D5
S11300100C946B000C946B000C946B000C946B00B0
S11300200C946B000C946B000C946B000C946B00A0
S11300300C946B000C946B000C946B000C946B0090
S11300400C946B000C946B000C946B000C946B0080
S11300500C946B000C946B000C946B000C946B0070
S11300600C946B000C946B000C946B000C946B0060
S11300700C946B000C946B000C946B000C946B0050
S11300800C946B000C946B000C946B000C946B0040
S11300900C946B000C946B000C946B000C946B0030
S11300A00C9403010C946B000C946B0011241FBE80
S11300B0CFEFCDBFDFE2DEBF10E2A0E0B0E2EAE2C4
S11300C0F2E002C005900D92A230B107D9F70E9468
S11300D07D000C9413010C9400008093C00980915E
S11300E0C10985FD04C08091C10986FFFCCF8091C0
S11300F0C10980648093C109089580915000826091
S1130100809350008091510081FFFCCF88ED84BF23
S113011081E080934000809150008E7F8093500056
S1130120809150008460809350008091510082FF40
S1130130FCCF109256008091600081608093600033
S11301408091B400827F81608093B40090E89093A2
S113015041068091B400827F81608093B4009093C3
S11301604106909361069093650680916E068061C6
S113017080936E068CE08093C60980E48093C7095F
S11301808091C3098B7F8093C3098091C3098861DF
S11301908093C30983E08093C4098091C409877F55
S11301A08093C4091092C5098091C2098F7C806133
S11301B08093C2098091A20081608093A200789408
S11301C081E080930106C1E0809100200E946D00CF
S11301D0C09305062FEF87EA91E6215080409040B6
S11301E0E1F700C00000809100200E946D00C093E0
S11301F006062FEF87EA91E6215080409040E1F710
S113020000C00000E1CF1F920F920FB60F9211248D
S11302108F938091C009809300208F910F900FBE1F
S10D02200F901F901895F894FFCF7B
S105022A2A00A4
S9030000FC
