S01F0000584D4547415F45355F58504C41494E45445F44454D4F312E7372656351
S11300003DC2000058C2000056C2000054C20000A5
S113001052C2000050C200004EC200000C940911EC
S11300200C94341148C2000046C2000044C20000CF
S11300300C94AD110C94D8110C9403120C942E1240
S11300400C9459120C9484120C94AF120C94DA127E
S11300500C9405130C9430132EC200002CC2000023
S11300602AC2000028C2000026C2000024C20000E8
S113007022C2000020C200001EC200001CC20000F8
S11300801AC2000018C200000C94720C14C20000C2
S11300900C945B130C9486130C94B1130C94DC1322
S11300A00AC2000008C2000006C200001410321088
S11300B02D10281023101E1019100000000000003D
S11300C000000000000000000080C0E0F0F8FC7EAA
S11300D0FEFEFE00000000FEFEFEFE8000000000AA
S11300E0000000000000000000000000000000000C
S11300F000000000000000000000000000000000FC
S113010000000000000000000000000000000000EB
S1130110000000FEFEFEFEFE000C1E1E1E0C000073
S113012000000000000080C0E0F0F8FCFFFFDFC723
S1130130C30100FFFFFFFF00000F0FFFFFFFFF0FD2
S11301400F0F0F0F0F0000F0F8FEFE3F1F0F0F0FF1
S11301500F1FFEFEFEFEFF1F0F0F0F0F1FFFFEFE01
S1130160F8E000C0F0FCFEFEFFCFCFCFCFCFCFCF63
S1130170DFFFFEFCF8C000FFFFFFFFFF00000000F0
S11301800000008080E0F0F8FC7F3F0F07030303CA
S113019003030303030000FFFFFFFF000000000F41
S11301A03FFFFFFCF0E0E0E0E00000FFFFFFFF00A6
S11301B0000000000000FFFFFFFFFF000000000040
S11301C000FFFFFFFFFF00073F7FFFFFFBE3C3C309
S11301D0C3C3C3E3E3E3E3E32303000F3F7FFFFF72
S11301E0F0E0E0E0E000000000000000000000009B
S11301F000202020202000205050500000000050FB
S113020050F850F850502078A07028F020C0C81042
S1130210204098186090A040A8906860204000009A
S113022000001020404040201040201010102040BA
S1130230005020F8205000002020F820200000006A
S11302400000602040000000F800000000000000F2
S113025000606000081020408000708898A8C8885A
S11302607020602020202070708808102040F8F84A
S113027010201008887010305090F81010F880F09A
S113028008088870304080F0888870F80810204092
S113029040407088887088887070888878081060FA
S11302A00060600060600000606000602040081032
S11302B020402010080000F800F8000080402010C2
S11302C02040807088081020002070880868A8A842
S11302D07070888888F88888F08888F08888F0703A
S11302E0888080808870E09088888890E0F880809A
S11302F0F08080F8F88080E080808070888080982A
S11303008870888888F88888887020202020207049
S1130310381010101090608890A0C0A09088808041
S113032080808080F888D8A8888888888888C8A829
S113033098888870888888888870F08888F0808099
S11303408070888888A89068F08888F0A090887861
S11303508080700808F0F8202020202020888888D9
S11303608888887088888888885020888888A8A881
S1130370D888888850205088888888502020202059
S1130380F80810204080F8382020202020380080F1
S11303904020100800E02020202020E02050880089
S11303A0000000000000000000F8402010000000E1
S11303B000000070087888788080B0C88888F000D1
S11303C000708080887008086898888878000070B9
S11303D088F88070304840E04040400000788878D9
S11303E008308080B0C88888882000602020207071
S11303F01000301010906040404850605048602019
S113040020202020700000D0A8A888880000B0C850
S1130410888888000070888888700000F088F080E0
S113042080000068987808080000B0C880808000C8
S11304300070807008F04040E04040483000008880
S1130440888898680000888888502000008888A8D8
S1130450A8500000885020508800008888780870D0
S11304600000F8102040F810202040202010202008
S113047020202020204020201020204011241FBEB6
S1130480CFEFCDBFDFE2DEBF10E2A0E0B0E2E6E1F5
S1130490FCE302C005900D92AA3CB107D9F723E210
S11304A0AAECB0E201C01D92A738B207E1F70E949E
S11304B008180C94091EA4CD0F931092CF2010920B
S11304C0D0201092D1201092D2201092CB201092E2
S11304D0CC201092CD201092CE2080E098E00E9493
S11304E00714E0E0F8E08081807F8660808381E00B
S11304F080872EE030E240E060E08BE190E220D79C
S113050001E026E041E069E080E0A6D526E041E094
S113051069E081E3A1D50F910895F89481E0809377
S1130520D320E0E0F8E020A131A18091CF20909188
S1130530D020A091D120B091D220820F931FA11D71
S1130540B11D8093CF209093D020A093D120B0935D
S1130550D22010A211A208958091D3208823E1F023
S11305601092D320E0E0F8E020A131A18091CB20CB
S11305709091CC20A091CD20B091CE20820F931FDA
S1130580A11DB11D8093CB209093CC20A093CD20AE
S1130590B093CE2010A211A20895CF92DF92EF92D1
S11305A0FF920F93CF938091CF209091D020A09170
S11305B0D120B091D2204091CB205091CC20609199
S11305C0CD207091CE209A01AB01280F391F4A1F0C
S11305D05B1F22316AE736074105510508F451C013
S11305E0E0E0F8E0648560FF05C08485816084876D
S11305F0C0E31FC06C017D01CC0CDD1CEE1CFF1C94
S11306008C0D9D1DAE1DBF1D880F991FAA1FBB1FFA
S1130610880F991FAA1FBB1FBC01CD01660F771F4E
S1130620881F991F660F771F881F991F0E94F6184D
S1130630C22F8091CA208C1740F44C2F481B01E034
S113064024E06BE08F5F08D50AC0C81740F4482F38
S11306504C1B00E024E06BE081E08C0FFDD4C093E0
S1130660CA201092CF201092D0201092D120109244
S1130670D2201092CB201092CC201092CD20109238
S1130680CE20CF910F91FF90EF90DF90CF900895FF
S11306900F931F93CF93DF93CDB7DEB76497CDBF8E
S11306A0DEBF80910D20982F937019F095E020E023
S11306B002C090E020E02F939F93869586951F9229
S11306C08F9384E290E29F938F938E010F5F1F4F6D
S11306D01F930F930E94081A2EE030E240E063E477
S11306E0C8012ED6CDBFDEBF6496CDBFDEBFDF917D
S11306F0CF911F910F9108958EE180931F218FE474
S1130700809320214FE151E261E080E092E00E9479
S1130710030D8FB7F894E0E0F2E090819460908349
S11307208FBF089510922A2180E2E0E6F6E08683E6
S1130730E3CF0895CF92DF92EF92FF922091292187
S113074080E098E0841B950B80931D2190931E21DB
S113075081E0820F80932921811102C0CDDF5DC029
S1130760109229219091DA208091D920981B8091B0
S1130770DC2098238091DB20891B823008F44DC053
S11307800E94A6104091DA20ECEDF0E2A081A6953B
S1130790A423B0E0AA0FBB1F2091D7203091D8200A
S11307A0A20FB31F6D937C934F5F80814823EAEDC2
S11307B0F0E240832081ECEDF0E2A081A695A22333
S11307C0B0E0AA0FBB1F8091D7209091D820A80F2A
S11307D0B91F80911D2190911E218D939C932F5FB1
S11307E0808128232093DA2080E2E0E6F6E0858306
S11307F081E080932A21C0900D20D12C81E0C81A79
S1130800D108EE24D7FCE094FE2C0E94A6106C0DB7
S11308107D1D8E1D9F1D0E94D110FF90EF90DF90D3
S1130820CF9008950F931F93CF93DF93CDB7DEB787
S11308302797CDBFDEBF8BE291E20E947B0D04EFD0
S113084011E020E046E060E076E08BE291E20E9475
S1130850A10D8BE291E20E94AD0D60E478E08BE2A1
S113086091E20E94B10D68E270E08BE291E20E9495
S1130870B50D8BE291E20E94B90DBE016F5F7F4F0F
S113088080E092E00E94E10C89819A819F789061D6
S11308909A8396E09C83817E806189831B82BE015A
S11308A06F5F7F4F80E092E00E94A20C6AE973E0E0
S11308B080E092E0D8D780E092E0FDD74FE151E2AA
S11308C061E080E092E00E942B0D8EE180931F2175
S11308D08FE480932021E1E2F1E28081807F8160D6
S11308E080834FE151E261E080E092E00E94030DD9
S11308F040E26DED70E287ED90E239D282E993E057
S11309000E94E91001E020E240E460E080E43AD390
S1130910BFDE2EE030E243E163E488E390E210D5E9
S113092026E041E06CE183E497D326E041E06CE10A
S113093088E692D30E94A6100E94D1102796CDBFBC
S1130940DEBFDF91CF911F910F910895CF92DF9277
S1130950EF92FF920F931F93CF93DF93CDB7DEB740
S11309606E97CDBFDEBF8BE291E20E9499109695FF
S1130970879520910B2030910C208217930741F129
S113098080930B2090930C200196880F80930D2068
S11309901FB7F89480912A218823C1F00E94A610E1
S11309A06093D5207093D620C0900D20D12C81E087
S11309B0C81AD108EE24D7FCE094FE2C0E94A6109D
S11309C06C0D7D1D8E1D9F1D0E94D1101FBF60DE0A
S11309D00E94A6102091D5203091D620DC01CB01B5
S11309E0821B930BA109B109880F991FAA1FBB1F72
S11309F0880F991FAA1FBB1FBC01CD01660F771F6B
S1130A00881F991F20910D2030E040E050E00E94A3
S1130A10F618F22E98E0921718F46894FF24F3F86D
S1130A208091D420F81630F40FEF20E044E06EE01B
S1130A308EE62DD38091D4208F1591F001E010E043
S1130A4020E030E00F2C04C0000F111F221F331FC1
S1130A500A94D2F7015021E044E06EE08EE617D309
S1130A60F092D4208091DA209091D9202091DC203A
S1130A70891B8223823008F48CC03091D920E22F64
S1130A80E695E323F0E0EE0FFF1F8091D7209091CD
S1130A90D820E80FF91F808191813F5F2323E9ED7E
S1130AA0F0E220838093D5209093D620308120914A
S1130AB0DC20E22FE695E323F0E0EE0FFF1F8091A8
S1130AC0D7209091D820E80FF91FE080F1803F5F94
S1130AD023232093D9208091D5209091D620FF9272
S1130AE0EF92AC014370552769E1649F9001659FC3
S1130AF0300D11243F932F9396958795969587955E
S1130B009F938F938EE390E29F938F938E010F5F59
S1130B101F4F1F930F930E94081A1F930F9386E58C
S1130B2090E29F938F930E94F719C701AA2797FD1C
S1130B30A095BA2FAC01BD01440F551F661F771F46
S1130B40440F551F661F771F440F551F661F771FDD
S1130B50840F951FA61FB71F072E79E0B695A7959A
S1130B60979587957A95D1F7702D182FCDBFDEBF55
S1130B70153208F014E201E024E0412F6CE183E433
S1130B806BD244E2411B00E024E06CE183E4810F7A
S1130B9063D26E96CDBFDEBFDF91CF911F910F91CF
S1130BA0FF90EF90DF90CF9008951F93CF93DF9342
S1130BB01F92CDB7DEB7182F89E78983BE016F5F17
S1130BC07F4F80EC98E093D581E0E0EEF7E08683F8
S1130BD0E0ECF8E0918195FFFDCF1093C008E0ECC4
S1130BE0F8E0818186FFFDCFE0ECF8E080E48183CA
S1130BF08081BE016F5F7F4F80EC98E08ED50F90AF
S1130C00DF91CF911F910895CF92DF92EF92FF92DF
S1130C100F931F93CF93DF931F92CDB7DEB788E076
S1130C20E0E6F6E0868380E090E001968533910566
S1130C30E1F788E0E0E6F6E0858380E090E0019665
S1130C4085339105E1F789E7898380EC98E024D521
S1130C50C12CD12C760100E01BE127EB30E040E011
S1130C60BE016F5F7F4F80EC98E025D588EA9DDF59
S1130C708FE19BDF83ED99DF80E097DF80E495DFF0
S1130C8081EA93DF88EC91DF8AED8FDF82E08DDFEC
S1130C9081E88BDF8FE889DF84EA87DF86EA85DFF6
S1130CA085ED83DF80E881DF8DE87FDF84E17DDF10
S1130CB08BED7BDF80E479DF89ED77DF81EF75DF12
S1130CC08FEA73DF0F90DF91CF911F910F91FF9007
S1130CD0EF90DF90CF9008958FEF80937000809312
S1130CE071008093720080937300809374008093EA
S1130CF07500809376008FB7F894E0E5F0E090817A
S1130D00926090838FBF818181FFFDCF61E080E499
S1130D1090E0C9D68FB7F894E0E5F0E090819E7F2B
S1130D2090838FBF8FB7F8949081946090838FBF26
S1130D30818182FFFDCF85E0E0E4F0E083830895C4
S1130D409FB7F894E82FF0E0E059FF4F6095808159
S1130D50682360839FBF08959FB7F894E82FF0E05D
S1130D60E059FF4F8081682B60839FBF0895FC0189
S1130D70128213824483440F4150458360837183FC
S1130D8080E090E00895809348219093492108954C
S1130D90DC01E42FF0E080E8689FE00DF11D1124F0
S1130DA08091482190914921E80FF91F8D918193F9
S1130DB02150E1F7089520E8829FC0011124FC012D
S1130DC0E60FF11D8091482190914921E80FF91F08
S1130DD04083089520E8829FC0011124FC01E60F9E
S1130DE0F11D8091482190914921E80FF91F8081DC
S1130DF00895FF920F931F93CF93DF93E42FF0E0B6
S1130E00E80FF11DE138F10514F040E8481B4423D4
S1130E1009F45CC0C62FC695C695C695EC2FF0E0C4
S1130E20F195E195F109EE0FFF1FEE0FFF1FEE0F95
S1130E30FF1FDF01A60FB11DBD01E1E0F0E0DF01FE
S1130E4002C0AA0FBB1F6A95E2F70A2F213049F0AE
S1130E5068F0223009F03AC0D42FFF24FA94F80E37
S1130E6028C0D42FFF24FA94F80E07C0D42FFF24EF
S1130E70FA94F80E0A2F00950EC01F2D1D0F612F36
S1130E808C2FC1D3482F402B20E0612F8C2F14D3FB
S1130E90D15099F71BC01F2D1D0F612F8C2FB3D379
S1130EA0482F402320E0612F8C2F06D3D15099F78F
S1130EB00DC01F2D1D0F612F8C2FA5D3482F402748
S1130EC020E0612F8C2FF8D2D15099F7DF91CF9188
S1130ED01F910F91FF900895EF92FF920F931F932C
S1130EE0CF93DF93082FF22E442309F444C09FEFDD
S1130EF0960F940F691303C0422F47D33CC09F3110
S1130F0008F09FE1162F169516951695E92EE6948E
S1130F10E694E6946770EFEFF0E0AF0102C0440F8F
S1130F20551F6A95E2F79770C7E0D0E0C91BD10955
S1130F30CF0102C095958795CA95E2F7EC011E1181
S1130F4006C048232F2D602F812F5FD314C02F2D6F
S1130F50602F812F5AD31F5F1E1540F42F2D4FEFA2
S1130F60602F812F52D31F5F1E15C0F32F2D4C2FDE
S1130F70602F8E2D4AD3DF91CF911F910F91FF9057
S1130F80EF9008959F92AF92BF92CF92DF92EF922B
S1130F90FF920F931F93CF93DF93182FD62E4817EA
S1130FA028F4D22E262F812F142F482F411BE42EF4
S1130FB02D19C22F442324F4E194CC24CA9402C0F2
S1130FC0CC24C394CC232CF4C22FC195BB24BA9453
S1130FD002C0BB24B394CE15D4F4AC2E9E2CCE19EF
S1130FE0FF24E7FCF094FF205CF1D0E0402F6D2D4E
S1130FF0812FCBD2CC2314F0C919DB0CCA0D1C0DE4
S1131000DF5F2D2F30E0E216F30684F719C0AE2C13
S11310109C2EEC1ADD27C7FDD095DD238CF0F12C36
S1131020402F6D2D812FB1D2EE2014F0E9181C0D44
S1131030EA0CDB0CF3942F2D30E0C217D30784F7AE
S1131040DF91CF911F910F91FF90EF90DF90CF90A0
S1131050BF90AF909F900895FF920F931F93CF93EB
S1131060DF93D82F142F222361F0C22FFF24FA9488
S1131070F60E6F2D6C0F202F412F8D2FBADEC1502D
S1131080C1F7DF91CF911F910F91FF9008955F9267
S11310906F927F928F929F92AF92BF92CF92DF9284
S11310A0EF92FF920F931F93CF93DF93B82E962E58
S11310B0142FA22E411103C0422F67D274C0C42F33
S11310C0D0E0CC0FDD1FD195C195D1092396C62E52
S11310D0D82EE82EFF24F394802F8370682E802F5F
S11310E08C70782E802F8073882E007C5E2C5B1889
S11310F0662069F02A2D4F2D6C2D812F8B0DECDE8F
S11311002A2D41E0410F692D611B8E2DE5DE7720EC
S113111069F02A2D4F2D6C2D8B2D811BDDDE2A2DA0
S113112041E0410F692D611B8D2DD6DE882061F0D1
S11311302A2D4F2D692D8B2D811BCEDE2A2D41E0CA
S1131140410F692D8D2DC8DE002361F02A2D4F2D0E
S1131150692D812F8B0DC0DE2A2D41E0410F692DB1
S11311608E2DBADEDD2354F4E52DF0E0EE0FFF1FE3
S1131170EE0FFF1F3696CE0FDF1F0CC0E52DF0E0FB
S1131180E11BF109EE0FFF1FEE0FFF1F3A96CE0F82
S1131190DF1F115081E08F0DE394DA94CA941F1578
S11311A010F0F82EA3CFDF91CF911F910F91FF90F4
S11311B0EF90DF90CF90BF90AF909F908F907F90F3
S11311C06F905F900895BF92CF92DF92EF92FF925B
S11311D00F931F93CF93DF93EC01F62EE980E694EF
S11311E0E694E694D42ED694D694D6948A81882311
S11311F049F0813009F03DC0EE2009F43AC000E026
S113120010E01CC0E11021C034C0909FF001919FF8
S1131210F00D1124EC0DF11D2B813C81E20FF31F25
S113122044916C2D6F0D20E08B2D46D1C394988191
S1131230C91658F30F5F1F4F0E15D8F498819923E0
S1131240C9F3C12CBD2CB00EE0CF00E010E0288122
S11312506D2D600F209FC001219F900D1124EB8103
S1131260FC814F2D8E0F9F1FC3D00F5F1F4F0E1594
S113127070F3DF91CF911F910F91FF90EF90DF906A
S1131280CF90BF900895AF92BF92CF92DF92EF922A
S1131290FF920F931F93CF93DF93C82FD62EA42EC4
S11312A0790100E0F901248143816A2D8D2DD4DE7A
S11312B0F7019081911139C08381A82FA695A69535
S11312C0A695877009F0AF5FF701C480AC9DD0018B
S11312D01124EC2FF0E0E7018D81E81BF109AE9FAA
S11312E09001AF9F300DBE9F300D11240980DA812B
S11312F0C02DC20FD31FF701B380BB2099F000E0CB
S113130010E0812F8D0D912F977019F4FE01049137
S1131310219600231CF441E06A2D37D1000F1F5F92
S11313201B11EFCFA394CA9431F7DF91CF911F9192
S11313300F91FF90EF90DF90CF90BF90AF90089502
S1131340DF92EF92FF920F931F93CF93DF93E42EDC
S11313508901EC01F62ED62E89918A3031F4F801F8
S113136084818F5FE80EFD2C09C08D3039F098011F
S11313704E2D6F2D88DFF8018381F80E888181114D
S1131380EBCFDF91CF911F910F91FF90EF90DF9002
S113139008951F93CF93DF931F92CDB7DEB7182F15
S11313A089E78983BE016F5F7F4F80EC98E09FD10E
S11313B081E0E0EEF7E08683E0ECF8E0918195FFD0
S11313C0FDCF1093C008E0ECF8E0818186FFFDCFEB
S11313D0E0ECF8E080E481838081BE016F5F7F4FA1
S11313E080EC98E09AD10F90DF91CF911F910895EE
S11313F07F928F929F92AF92BF92CF92DF92EF92A1
S1131400FF920F931F93CF93DF931F92CDB7DEB755
S1131410D82E092FF62E142FB22EBADC8F2D8770FA
S1131420806BB7DF812F8F7782958F708061B1DFFA
S1131430812F8F70AEDFED2CF02E0F2EF9E77F2E6B
S1131440F02D00EC18E00F2EF0EECF2EF7E0DF2E9B
S1131450F02DAA24A3946894882486F8F701919027
S11314607F017982BE016F5F7F4FC80140D1F601D1
S1131470A582F801818185FFFCCF9082F8018181EA
S113148086FFFCCF81828081F601A682BE016F5F58
S11314907F4FC80142D1BA9409F70F90DF91CF91E1
S11314A01F910F91FF90EF90DF90CF90BF90AF907E
S11314B09F908F907F900895FF920F931F93CF93E7
S11314C0DF931F92CDB7DEB7F82E162F042F21110C
S11314D003C080DC8017C1F1402F612F8F2D6BDC9E
S11314E08F2D8770806B55DF812F8F7782958F705A
S11314F080614FDF812F8F704CDF89E78983BE01C4
S11315006F5F7F4F80EC98E0F2D081E0E0EEF7E08F
S11315108583E0ECF8E0818185FFFDCF0093C0086E
S1131520E0ECF8E0818186FFFDCFE0ECF8E080E4B8
S11315308183808181E0E0EEF7E08683BE016F5F06
S11315407F4F80EC98E0E9D00F90DF91CF911F910D
S11315500F91FF900895CF93DF938AE491E213DC17
S113156053DB80E416DFD0E00BC021E040E06C2FB9
S11315708D2FA2DFCF5FC038C1F7DF5FD43011F009
S1131580C0E0F3CFDF91CF910895FF920F931F93A3
S1131590CF93DF93182F042F88237CF1603268F5F2
S11315A0F62EF694F694F6942F2D30E0319521958D
S11315B03109220F331F220F331F220F331F260F2F
S11315C0311DE1E0F0E0EF0102C0CC0FDD1F2A95F0
S11315D0E2F7682F8F2DFEDB013021F028F0023076
S11315E031F006C08C2B04C0C0958C2301C08C271D
S11315F020E0482F612F8F2D5FDFDF91CF911F9166
S11316000F91FF900895E6CB08950F931F93CF9306
S1131610DF93D82F162F042FC22FDCDBC13021F02B
S113162028F0C23031F006C0802B04C0009580231E
S113163001C0802720E0482F612F8D2F3DDFDF91EF
S1131640CF911F910F910895CF93DF93FC01709672
S113165020E030E0C62FD0E0DE01022E02C0B595B6
S1131660A7950A94E2F7A0FD50832F5F3F4F319670
S11316702830310589F740FF0AC041FF03C0FC014F
S1131680658302C0FC016683FC01618302C0FC0126
S11316906283DF91CF910895803C28E0920721F482
S11316A060E183E04DCB0895803C994019F460E1FA
S11316B084E046CB08950F931F93CF93DF93CDB768
S11316C0DEB72697CDBFDEBF09831A832B833C8305
S11316D04D831E82BE016F5F7F4F0E947016269657
S11316E0CDBFDEBFDF91CF911F910F910895FB0114
S11316F08081E82FE695E695E69540E2E49FF001C7
S11317001124FA5F877021E030E0A90102C0440F80
S1131710551F8A95E2F746830895FB018081E82FDF
S1131720E695E695E69540E2E49FF0011124FA5F20
S1131730877021E030E0A90102C0440F551F8A954B
S1131740E2F745830895CF93DF931F92CDB7DEB7B9
S11317508091712390917223E0916D23F0916E2317
S1131760BE016F5F7F4F09958981992787FD909509
S11317700F90DF91CF910895682F809171239091FC
S11317807223E0916F23F0917023099599231CF43F
S11317908FEF9FEF089581E090E0089543E050E0DB
S11317A060E180E696E050DF43E050E060E280E6EE
S11317B096E04ADF40E05BE161E080E696E044DFEA
S11317C040E05BE164E080E696E03EDF40E05BE120
S11317D060E280E096E038DF43E050E062E080EED3
S11317E097E032DFE0E4F6E086858061868743E0B7
S11317F050E061E080EE97E027DF43E050E068E0EE
S113180080E696E021DF43E050E060E280E496E089
S11318101BDF43E050E060E880E496E015DF40E041
S113182050E060E480E096E00FDF40E050E060E8E4
S113183080E096E009DF40E050E062E080E696E078
S113184003DFE0E6F6E086858061868743E050E0CA
S113185060E880E696E0F8DE40E050E060E480E690
S113186096E0F2CE08952FB7F8948115924021F4B2
S113187060937323709374232FBF0895811592404E
S113188059F480914A2391E0980F90934A2381114F
S113189003C062E081E054CA08958115924051F476
S11318A080914A23815080934A23811103C062E0CE
S11318B081E052CA08951F93CF93DF93EC011FB7C1
S11318C0F894DCDF8881816088831FBF8FB7F89428
S11318D0E8E6F3E290819F5F90838FBFDF91CF9121
S11318E01F9108951F920F920FB60F9211242F93F8
S11318F03F934F935F936F937F938F939F93AF9394
S1131900BF93EF93FF930E94AC02E0E0F2E044A1A6
S113191055A1E0917323F091742361E080E092E09B
S11319200995FF91EF91BF91AF919F918F917F9115
S11319306F915F914F913F912F910F900FBE0F9038
S11319401F901895DF92EF92FF920F931F93CF93FE
S1131950DF93EC018B01C11582E0D80751F561E2F8
S113196070E082E0A6D0E82EF12C60E270E082E024
S1131970A0D0FE2CEE24E82ADFB6F894CE017EDF58
S11319802881217082E08883EC86FD86F8018481B9
S11319909581888F998F81818A8383818C838281C9
S11319A08B8380818983868188872883CE0175DF34
S11319B0DFBEDF91CF911F910F91FF90EF90DF90E9
S11319C00895FF920F931F93CF93DF93EC018B0144
S11319D0FFB6F89453DF888D998DF801848395833D
S11319E08A8181838C8183838B81828389818083B3
S11319F088858683CE0151DFFFBEDF91CF911F9191
S1131A000F91FF900895FF920F931F93CF93DF934D
S1131A10EC018A01FFB6F89431DFF801808188A3D4
S1131A2082818AA3818189A383818EA384818FA3E8
S1131A30858188A7868189A787818AA780858BA7C6
S1131A4081858CA7CE0129DFFFBEDF91CF911F9145
S1131A500F91FF900895FF920F931F93CF93DF93FD
S1131A60EC018A01FFB6F89409DF88A1F8018083AC
S1131A708AA1828389A181838EA183838FA1848398
S1131A8088A5858389A586838AA587838BA5808776
S1131A908CA58187CE0101DFFFBEDF91CF911F911D
S1131AA00F91FF9008951BBEFC0128ED24BF6083B5
S1131AB008954091CA01E62FF72F8093CA018491BB
S1131AC04093CA01089550E0FA01E058FE4F811591
S1131AD026E0920719F4606560830895803426E057
S1131AE0920719F46066608308958036964011F475
S1131AF0686660830895FC0180E096E080839183AA
S1131B00128282E090E08383948315821682118688
S1131B10128680E498E08387948780E098E0818B44
S1131B20928B178682E0808B48EE53E060E070E091
S1131B30438B548B658B768B84E090E08587968706
S1131B4008950F931F93FC01608371834283038381
S1131B50148325831F910F91089521E0FC012187AF
S1131B600895FC01638774870895FC01658776876F
S1131B7008952F923F924F925F926F927F928F922D
S1131B809F92AF92BF92CF92DF92EF92FF920F9308
S1131B901F93CF93DF93EC01E881F98183E090E018
S1131BA09C010A8002C0220F331F0A94E2F72283A9
S1131BB00A8002C0880F991F0A94E2F78093B0004C
S1131BC0E881F9818089887F9D81992311F090E4CF
S1131BD001C090E0892B808B8E81882301F1E881FC
S1131BE0F98184E090E09C010A8002C0220F331F37
S1131BF00A94E2F722830A8002C0880F991F0A948C
S1131C00E2F78093B000E881F9819089987F8F8111
S1131C10882311F080E401C080E0892B808B62E08E
S1131C2080E08ED84A856A81888199814CDF8A84D4
S1131C30912C38E7831A3EEF930A4B805C8089EE3F
S1131C40481683E05806C8F09201369527953695D4
S1131C50279536952795A5ECB0E20E941E199C01A4
S1131C60329522952F7023273F702327A0E0BDE7EC
S1131C700E941E192B013C0116C0612C712C440CCE
S1131C80551C661C771C440C551C661C771C440CA4
S1131C90551C661C771C440C551C661C771C440C94
S1131CA0551C661C771CE8E04E165104610471044F
S1131CB008F457C0D301C201689412F8B695A795E9
S1131CC0979587951694D1F788309105A105B105AC
S1131CD068F1689412F8B695A79597958795169428
S1131CE0D1F788309105A105B105E0F0689412F8A8
S1131CF0B695A795979587951694D1F78830910551
S1131D00A105B10588F0689412F8B695A795979542
S1131D1087951694D1F788309105A105B10540F453
S1131D2023E007C021E005C022E003C020E001C099
S1131D3024E02C013D0188309105A105B10538F05E
S1131D400F2EF7E04F2E512C612C712CF02D9E811B
S1131D50992311F080E301C080E1822BE0E8F1E0F7
S1131D60828B8985882311F080E801C080E0942D5E
S1131D709860892BF40180838E81882309F4BCC187
S1131D8020818885F0E28F9FC0011124822B80611D
S1131D90F40180834A854F5F6A816E5F88819981EF
S1131DA092DEF40141828B859C8531D58A85885FDA
S1131DB0EB85FC85E6FD08C0938190719383938144
S1131DC09068892B838307C0938190719383938157
S1131DD09068892B8383EB85FC85E6FD03C010A204
S1131DE011A202C010A211A28D859E850197EB85D8
S1131DF0FC85E6FD03C086A397A302C086A397A330
S1131E00EB85FC85E6FD05C08081807F8160808351
S1131E1004C08081807F816080838F85882309F45A
S1131E2075C1E0E8F1E0828984FF14C088898130BB
S1131E3021F482898062828B0DC0823031F4E0E823
S1131E40F1E082898064828B05C0E0E8F1E0828958
S1131E508068828BE889F0E0E857FE4FAA85B0E0FD
S1131E60A857BE4F8C918770808348896A81888186
S1131E70998129DE89899A89CAD48889885FE98900
S1131E80FA89E6FD08C09381907193839381906CE5
S1131E90892B838307C09381907193839381906C82
S1131EA0892B8383E989FA89E6FD03C010A211A274
S1131EB002C010A211A2E989FA89E6FD05C08FEFDC
S1131EC09FEF86A397A304C08FEF9FEF86A397A3EA
S1131ED0E989FA89E6FD04C084818260848303C0B1
S1131EE08481826084836B897C898D899E8928EEB4
S1131EF033E040E050E00E94F618CA01B9012D8594
S1131F003E8540E050E00E94F618E989FA892331C1
S1131F108AE738074105510560F4E6FD05C0808174
S1131F20807F876080836DC08081807F87608083AD
S1131F3068C0293488EE380781E04807510560F409
S1131F40E6FD05C08081807F866080835AC08081E1
S1131F50807F8660808355C0213281EA380787E01C
S1131F604807510560F4E6FD05C08081807F8560E7
S1131F70808347C08081807F8560808342C0213018
S1131F8089E038078DE34807510560F4E6FD05C094
S1131F908081807F8460808334C08081807F84607E
S1131FA080832FC0213082E138078AE74807510532
S1131FB060F4E6FD05C08081807F8360808321C05A
S1131FC08081807F836080831CC021303442444FF1
S1131FD0510560F4E6FD05C08081807F82608083C6
S1131FE010C08081807F826080830BC0E6FD05C0C5
S1131FF08081807F8160808304C08081807F816054
S11320008083E989FA89E6FD03C080818F7002C06C
S113201080818F7090E0FC013197E730F10538F54D
S1132020EA5AFF4F0C94181980E098E4A8EEB1E046
S113203021C082E19AE7A0E0B0E01CC088E498EEF9
S1132040A1E0B0E017C080E291EAA7E0B0E012C0DE
S113205080E099E0ADE3B0E00DC080E092E1AAE752
S1132060B0E008C080E094E2A4EFB0E003C080E0F8
S113207090E0DC011C012D01282F332D442D552D1A
S113208060E070E080E090E006E00E948B19A22CF2
S1132090B32CC42CD52CE12CF12C00E010E00E94D0
S11320A0A41901E00E948B1900E00E94A41903E026
S11320B00E948B19CB88DC88ED88FE8816012701E5
S11320C0AC2CB32CC42CD52CE12CF12C00E00E94B8
S11320D02F1902E00E948B192D843E84A22CB32C6C
S11320E0C12CD12C00E00E942F192F8B388F498FDF
S11320F05A8F1B8E1C8E0AC08B859C8588D38A853B
S1132100885FEB85FC85E6FD5FCE56CEDF91CF91EF
S11321101F910F91FF90EF90DF90CF90BF90AF9001
S11321209F908F907F906F905F904F903F902F90F3
S11321300895DC011B96ED91FC911C97E6FD03C00C
S113214080A191A1089580A191A108950F931F9357
S1132150E0E0F4E0818180FDFDCF2FB7F894409159
S1132160752350917623E0E0F4E080859185009713
S113217029F4338130FF02C04F5F5F4F2FBF60E00F
S113218070E0BA0155274427A0E0B0E08A019B0122
S1132190082B192B2A2B3B2BC901B8011F910F9136
S11321A00895E0E0F4E021E022836487758760937A
S11321B0792370937A238093772390937823818172
S11321C080FDFDCFE0E0F4E082E0838385E082835C
S11321D0089580937B2390937C23089564E080E0AA
S11321E00E94A006E0E0F4E08FEF9FEF82879387E0
S11321F0108611868FB7F894EAE6F3E290819F5F28
S113220090838FBFE0E0F4E081E0828386E0808306
S113221008951F920F920FB60F9211242F933F939C
S11322204F935F936F937F938F939F93AF93BF93DA
S1132230EF93FF930E94AC02E5E7F3E28081918182
S1132240019680839183FF91EF91BF91AF919F910C
S11322508F917F916F915F914F913F912F910F904B
S11322600FBE0F901F9018951F920F920FB60F92EA
S11322701124CF92DF92EF92FF920F931F932F932B
S11322803F934F935F936F937F938F939F93AF93FA
S1132290BF93EF93FF930E94AC024091752350913A
S11322A07623809177239091782348175907F0F18A
S11322B081E0E0E0F4E08283E0917B23F0917C23F1
S11322C03097A1F1A0E0B4E018968D919C911997F4
S11322D060E070E0BA0155274427A0E0B0E08A012D
S11322E09B01082B192B2A2B3B2BC901B801009108
S11322F077231091782320E030E0980111270027FC
S1132300C0907923D0907A23E12CF12C0C291D293B
S11323102E293F29061717072807390730F0C90166
S1132320B8016F5F7F4F8F4F9F4F0995FF91EF91DA
S1132330BF91AF919F918F917F916F915F914F91D9
S11323403F912F911F910F91FF90EF90DF90CF90CD
S11323500F900FBE0F901F9018951F920F920FB6FB
S11323600F9211242F933F934F935F936F937F9317
S11323708F939F93AF93BF93EF93FF930E94AC020D
S1132380E0916523F0916623309709F00995FF9158
S1132390EF91BF91AF919F918F917F916F915F91D9
S11323A04F913F912F910F900FBE0F901F90189552
S11323B01F920F920FB60F9211242F933F934F93B6
S11323C05F936F937F938F939F93AF93BF93EF9399
S11323D0FF930E94AC02E0916323F0916423309751
S11323E009F00995FF91EF91BF91AF919F918F9162
S11323F07F916F915F914F913F912F910F900FBEFD
S11324000F901F9018951F920F920FB60F921124E0
S11324102F933F934F935F936F937F938F939F93E8
S1132420AF93BF93EF93FF930E94AC02E0916123BB
S1132430F0916223309709F00995FF91EF91BF91D4
S1132440AF919F918F917F916F915F914F913F9148
S11324502F910F900FBE0F901F9018951F920F92FF
S11324600FB60F9211242F933F934F935F936F9363
S11324707F938F939F93AF93BF93EF93FF930E94A8
S1132480AC02E0915F23F0916023309709F0099545
S1132490FF91EF91BF91AF919F918F917F916F9138
S11324A05F914F913F912F910F900FBE0F901F900E
S11324B018951F920F920FB60F9211242F933F93EA
S11324C04F935F936F937F938F939F93AF93BF9338
S11324D0EF93FF930E94AC02E0915D23F0915E23A1
S11324E0309709F00995FF91EF91BF91AF919F91BA
S11324F08F917F916F915F914F913F912F910F90A9
S11325000FBE0F901F9018951F920F920FB60F9247
S113251011242F933F934F935F936F937F938F93E4
S11325209F93AF93BF93EF93FF930E94AC02E0910C
S11325305B23F0915C23309709F00995FF91EF91AB
S1132540BF91AF919F918F917F916F915F914F91C7
S11325503F912F910F900FBE0F901F9018951F92CF
S11325600F920FB60F9211242F933F934F935F93C3
S11325706F937F938F939F93AF93BF93EF93FF9347
S11325800E94AC02E0915923F0915A23309709F04C
S11325900995FF91EF91BF91AF919F918F917F9199
S11325A06F915F914F913F912F910F900FBE0F90BC
S11325B01F9018951F920F920FB60F9211242F930C
S11325C03F934F935F936F937F938F939F93AF93B7
S11325D0BF93EF93FF930E94AC02E0915723F091D5
S11325E05823309709F00995FF91EF91BF91AF916E
S11325F09F918F917F916F915F914F913F912F9117
S11326000F900FBE0F901F9018951F920F920FB648
S11326100F9211242F933F934F935F936F937F9364
S11326208F939F93AF93BF93EF93FF930E94AC025A
S1132630E0915523F0915623309709F00995FF91C5
S1132640EF91BF91AF919F918F917F916F915F9126
S11326504F913F912F910F900FBE0F901F9018959F
S11326601F920F920FB60F9211242F933F934F9303
S11326705F936F937F938F939F93AF93BF93EF93E6
S1132680FF930E94AC02E0915323F09154233097BE
S113269009F00995FF91EF91BF91AF919F918F91AF
S11326A07F916F915F914F913F912F910F900FBE4A
S11326B00F901F9018951F920F920FB60F9211242E
S11326C02F933F934F935F936F937F938F939F9336
S11326D0AF93BF93EF93FF930E94AC02E091512319
S11326E0F0915223309709F00995FF91EF91BF9132
S11326F0AF919F918F917F916F915F914F913F9196
S11327002F910F900FBE0F901F9018951F920F924C
S11327100FB60F9211242F933F934F935F936F93B0
S11327207F938F939F93AF93BF93EF93FF930E94F5
S1132730AC02E0914F23F0915023309709F00995B2
S1132740FF91EF91BF91AF919F918F917F916F9185
S11327505F914F913F912F910F900FBE0F901F905B
S113276018951F920F920FB60F9211242F933F9337
S11327704F935F936F937F938F939F93AF93BF9385
S1132780EF93FF930E94AC02E0914D23F0914E230E
S1132790309709F00995FF91EF91BF91AF919F9107
S11327A08F917F916F915F914F913F912F910F90F6
S11327B00FBE0F901F9018951F920F920FB60F9295
S11327C011242F933F934F935F936F937F938F9332
S11327D09F93AF93BF93EF93FF930E94AC02E0915A
S11327E04B23F0914C23309709F00995FF91EF9119
S11327F0BF91AF919F918F917F916F915F914F9115
S11328003F912F910F900FBE0F901F901895CF936B
S1132810CFB7F894282F392F211588E0380749F4C9
S113282061E083E00E94A00664E083E00E94A006C9
S11328301BC0203488E0380749F462E083E00E943A
S1132840A00664E083E00E94A0060EC02034394054
S113285049F462E084E00E94A00664E084E00E94FF
S1132860A00602C0CFBF09C08FB7F894E8E6F3E230
S113287090819F5F90838FBFCFBFCF910895CF93F7
S1132880CFB7F8942FB7F894E8E6F3E230813150EB
S113289030832FBF282F392F211588E0380749F4BA
S11328A061E083E00E94AC0664E083E00E94AC0631
S11328B01BC0203488E0380749F462E083E00E94BA
S11328C0AC0664E083E00E94AC060EC020343940BC
S11328D049F461E084E00E94AC0664E084E00E9474
S11328E0AC0602C0CFBF01C0CFBFCF910895FC0199
S11328F0818185FFFDCF608380E090E00895FC0135
S113290081818823ECF7808108954F925F926F92C2
S11329107F928F929F92AF92BF92CF92DF92EF926B
S1132920FF920F931F93CF93DF93EC014A015B0156
S113293028013901D901C801689412F8B695A79500
S1132940979587951694D1F7B901A801032E36E11E
S113295076956795579547953A95D1F7302D2B8104
S113296022FD08C0B695A7959795879576956795A6
S11329705795479588159905AA05BB0508F4A2C083
S113298084169506A606B70608F49EC08B8182FDC0
S113299004C0880C991CAA1CBB1CC301B201A5016C
S11329A0940124D42F3F31054105510508F48EC00C
S11329B0C12CD12C7601CA9419EF05C02C153D0504
S11329C04E055F0568F0CC0CDD1CEE1CFF1C1D3FA2
S11329D014F46894C0F81F5F173081F7212F4EC09C
S11329E0212F11230CF04AC0D501C401880F991F6F
S11329F0AA1FBB1F880F991FAA1FBB1F880F991FEF
S1132A00AA1FBB1F481A590A6A0A7B0A1E3FECF424
S1132A106DEF7FEF611B710917FD739504C0440CC2
S1132A20551C661C771C6A95D2F7D501C401B6956E
S1132A30A79597958795BC01CD01640D751D861DDD
S1132A40971DA5019401D2D334C023E0210FD501F1
S1132A50C40104C0880F991FAA1FBB1F2A95D2F76F
S1132A609C01AD01B695A79597958795BC01CD01BD
S1132A70640D751D861D971DB9D31BC02D5FD5012F
S1132A80C40104C0880F991FAA1FBB1F2A95D2F73F
S1132A909C01AD01B695A79597958795BC01CD018D
S1132AA0640D751D861D971DA1D32150310941095F
S1132AB05109832F8F701295107F182B1F832E833B
S1132AC081E018C080E016C080E014C0D501C401C4
S1132AD0880F991FAA1FBB1F880F991FAA1FBB1F0E
S1132AE0880F991FAA1FBB1F481A590A6A0A7B0A32
S1132AF019EF8ECFDF91CF911F910F91FF90EF903F
S1132B00DF90CF90BF90AF909F908F907F906F9009
S1132B105F904F9008950F931F93CF93DF93EC0131
S1132B208B01009709F486C0C11584E0D80729F405
S1132B3064E080E00E94A0067DC0C038E1E0DE07CA
S1132B4029F462E080E00E94A00674C0C115F1E09F
S1132B50DF0729F461E080E00E94A0066BC0C03862
S1132B6083E0D80729F461E081E00E94A00662C0F6
S1132B70C115E2E0DE0729F462E081E00E94A006CC
S1132B8059C0C115F3E0DF0729F464E081E00E9435
S1132B90A00650C0C11588E0D80729F461E083E09D
S1132BA00E94A00647C0C034E8E0DE0729F462E0D2
S1132BB083E00E94A0063EC0C034F9E0DF0729F498
S1132BC062E084E00E94A00635C0C03B88E0D807DC
S1132BD029F464E083E00E94A0062CC0C03EE8E033
S1132BE0DE0729F468E083E00E94A00623C0C03C0D
S1132BF0F8E0DF0729F460E183E00E94A0061AC030
S1132C00C03C89E0D80729F460E184E00E94A00672
S1132C1011C0C038E4E0DE0729F460E483E00E94D8
S1132C20A00608C0C036F4E0DF0721F460E880E0C5
S1132C300E94A0068C818F738C83F8019481858116
S1132C40892B9681992311F098E001C090E0892B9B
S1132C508C83F801408151816281738100E018E422
S1132C6028EE31E0CE0151DE9B8198609B839B81ED
S1132C7090619B83DF91CF911F910F910895CF9223
S1132C80DF92EF92FF920F931F93CF93DF93EC01A8
S1132C9068017901F694E794D794C7944C155D05BF
S1132CA06E057F0570F46A017B01CC0CDD1CEE1C03
S1132CB0FF1CC901B801A701960198D2215031091E
S1132CC002C020E030E0832F8F708F832E83DF914A
S1132CD0CF911F910F91FF90EF90DF90CF900895C7
S1132CE0FF920F931F93CF93DF93EC018B01009717
S1132CF009F40BC1811524E0920729F464E080E013
S1132D000E94A00602C1C03881E0D80729F462E01D
S1132D1080E00E94A006F9C0C115E1E0DE0729F4B5
S1132D2061E080E00E94A006F0C0C038F3E0DF0755
S1132D3029F461E081E00E94A006E7C0C11522E009
S1132D40D20729F462E081E00E94A006DEC0C1152A
S1132D5083E0D80729F464E081E00E94A006D5C08E
S1132D60C115E8E0DE0729F461E083E00E94A006D3
S1132D70CCC0C034F8E0DF0729F462E083E00E94AD
S1132D80A006C3C0C03429E0D20729F462E084E07D
S1132D900E94A006BAC0C03B88E0D80729F464E0CA
S1132DA083E00E94A006B1C0C03EE8E0DE0729F43B
S1132DB068E083E00E94A006A8C0C03CF8E0DF07FA
S1132DC069F460E183E00E94A006E0ECF8E083810E
S1132DD08F7E8383F8013481325026C0C03CF9E0F1
S1132DE0DF0729F460E184E00E94A0068EC0C038A9
S1132DF024E0D20729F460E483E00E94A00685C0A1
S1132E00C03684E0D80729F460E880E00E94A00678
S1132E107CC08B818F7E8B83FB0134813250CE0149
S1132E20C03CF8E0DF0751F4E0E4F6E0868584FD79
S1132E3074C00F2EF1E1FF2EF02D11C0803C99409B
S1132E4071F4E0E6F6E0868584FF05C00F2EFDE10F
S1132E50FF2EF02D04C00F2EF9E1FF2EF02DAF2D23
S1132E60A695A695A69580E2A89FD0011124BA5FE5
S1132E702F2D277081E090E0022E02C0880F991F49
S1132E800A94E2F711968C931197323010F430E4DF
S1132E9001C030E0FD017096E20FF11D9FB7F89478
S1132EA02081277020832081232B20839FBF1596A8
S1132EB08C938C81806C8C83F80184818D7F81302C
S1132EC021F48C8182608C8303C08C818D7F8C8300
S1132ED0F8018581882321F08C8184608C8303C070
S1132EE08C818B7F8C83F801408151816281738155
S1132EF000E018E428EE31E0CE01C1DE8B81886069
S1132F008B838B8180618B830DC08B818F7E8B83C0
S1132F10F80134813250CE0191CF0F2EF5E1FF2E0E
S1132F20F02D9DCFDF91CF911F910F91FF900895C8
S1132F30E0E6F6E0808582FB882780F991E0892726
S1132F400895CF93DF93EB01DADC8883DF91CF918F
S1132F500895CDCC08958F929F92AF92BF92CF9255
S1132F60DF92EF92FF920F931F93CF93DF938C0125
S1132F7080E499E04CDCE0E4F9E08081807F8760C4
S1132F80808381E080870115110591F1C0E4D9E0C7
S1132F900F2EF0ED8F2EF02D0F2EF7E09F2EF02D3B
S1132FA018A219A25801013D87E0180710F0A82CB7
S1132FB0B92C9501A0E0BDE741D16B017C010B2E3A
S1132FC0BAE0F694E794D794C794BA95D1F7B02DA4
S1132FD003C0AEDF811109C088A199A1A0E0B0E0CF
S1132FE08C159D05AE05BF05A0F30A191B09C1F692
S1132FF080E499E044DCDF91CF911F910F91FF9021
S1133000EF90DF90CF90BF90AF909F908F900895F6
S1133010CF93DF93CDB7DEB72797CDBFDEBF87E071
S1133020E0EAF0E082837894109267231092682398
S11330301092692310926A2310926B2381E080938B
S11330406C230E946C060E94CE0B0E94AB0AC6D869
S113305080EC99E0809371239093722389EA97E13D
S113306080936F239093702381EA97E180936D237B
S113307090936E2383E08D831E821F8280E096E905
S1133080A0E0B0E089839A83AB83BC8360E184E0F1
S11330900E94A006BE016F5F7F4F80EC99E03BDD8C
S11330A063EA7BE08CEB9BE058D180E1E0E6F6E05C
S11330B086833EDF81110EC040E06AE086E090E244
S11330C00E94E3082EE030E249E160E089E590E205
S11330D00E94A00988EB9BE03EDF2ADF81111AC021
S11330E00E94AB0A2EE030E240E060E08BE690E222
S11330F00E94A0092EE030E24AE060E08FE790E20F
S11331000E94A0092EE030E244E160E082E990E20E
S11331100E94A00988EB9BE01EDF0ADF811112C028
S11331200E94AB0A2EE030E240E060E086EA90E2E2
S11331300E94A0092EE030E24AE060E089EB90E2D0
S11331400E94A00988EB9BE006DF0E94AB0A0E9464
S11331505C020E94120480E499E059DBE0E4F9E0A7
S11331608CE19CE086A397A38081807F8760808325
S113317087818C7F87838781816087830F2EF7E621
S1133180EF2EF3E2FF2EF02D0F2EF8E6CF2EF3E212
S1133190DF2EF02D08E410E00E948D02F894F70170
S11331A08081811107C0F6018F5F91919923E1F32A
S11331B0811102C0789415C0F8019081E82FF0E0E5
S11331C0EC5EFF4D892F817F9081892BF8018083EC
S11331D080818160808378948895F80180818E7FD6
S11331E080830E94A6040E94CD02D6CFA1E21A2EAB
S11331F0AA1BBB1BFD010DC0AA1FBB1FEE1FFF1F97
S1133200A217B307E407F50720F0A21BB30BE40BE6
S1133210F50B661F771F881F991F1A9469F760952D
S11332207095809590959B01AC01BD01CF010895E7
S1133230EE0FFF1F0590F491E02D0994A29FB001B9
S1133240B39FC001A39F700D811D1124911DB29FD6
S1133250700D811D1124911D0895689401C0E89496
S11332608F929F92CF93DF9305D0DF91CF919F9060
S11332708F90089588249924F401E401B0E49F9385
S1133280AA279A158B049C04ED05FE05CF05D007EB
S1133290A10798F4AD2FDC2FCF2FFE2FE92D982C0A
S11332A0892E982F872F762F652F542F432F322F57
S11332B02227B85031F7BF9127C01B2EBF91BB27DF
S11332C0220F331F441F551F661F771F881F991F26
S11332D0881C991CEE1FFF1FCC1FDD1FAA1FBB1FDC
S11332E08A149B04EC05FD05CE05DF05A007B10794
S11332F048F08A189B08EC09FD09CE09DF09A00BE8
S1133300B10B21601A94E1F62EF49401AF01BE01D1
S1133310CD01000C08950F93083090F0982F872F5B
S1133320762F652F542F432F322F22270850F4CFA6
S1133330220F331F441F551F661F771F881F991FB5
S11333400A95B2F70F9108952A193B094C095D09B2
S11333506E097F09800B910B08950F931F93CF93F0
S1133360DF93EC018B01009731F46115710519F4B9
S113337080E090E037C06EE070E081E090E02AD217
S1133380FC010097A9F380E883830115110571F00E
S11333900287138781E8838380917D2390917E2324
S11333A0892B21F4E0937D23F0937E232097C9F0A9
S11333B0C087D18783818260838380917F239091AA
S11333C08023892B71F4E0937F23F09380238091F1
S11333D0812390918223892B21F4E0938123F0931C
S11333E08223CF01DF91CF911F910F910895A0E027
S11333F0B0E0ECEFF9E1ECC3FE0135966191719117
S1133400AF0180917F239091802321D0E2E0F9C322
S1133410AEE0B0E0EDE0FAE1D9C30D891E8986E0A3
S11334208C8309831A838FEF9FE78D839E83AE017C
S1133430475E5F4F6F89788DCE01019608D0EF818A
S1133440F885E00FF11F10822E96E4E0D8C3ACE0BB
S1133450B0E0ECE2FAE1ACC37C016B018A01FC014F
S113346016821782838181FFB0C1CE0101964C017F
S1133470F7019381F60193FD859193FF81916F018B
S1133480882309F49EC1853239F493FD859193FF15
S113349081916F01853221F4B70190E0F9D2E8CF30
S11334A0512C312C20E02032A0F48B3269F030F41E
S11334B0803259F0833269F420612CC08D3239F0A6
S11334C0803339F4216026C02260246023C0286040
S11334D021C027FD27C030ED380F3A3078F426FF9D
S11334E006C0FAE05F9E300D1124532E13C08AE00B
S11334F0389E300D1124332E20620CC08E3221F4FC
S113350026FD5FC1206406C08C3611F4206802C019
S1133510883641F4F60193FD859193FF81916F0103
S11335208111C1CF982F9F7D9554933028F40C5F5F
S11335301F4FFFE3F9830DC0833631F0833771F0F9
S1133540833509F057C021C0F801808189830E5F5B
S11335501F4F44244394512C540114C03801F2E009
S11335606F0E711CF801A080B18026FF03C0652D89
S113357070E002C06FEF7FEFC5012C877ED22C0173
S113358083012C852F77222E16C03801F2E06F0EAE
S1133590711CF801A080B18026FF03C0652D70E086
S11335A002C06FEF7FEFC5012C8755D22C012C850B
S11335B02068222E830123FC19C0832D90E0481635
S11335C05906A0F4B70180E290E062D23A94F5CFB4
S11335D0F50127FC859127FE81915F01B70190E0F9
S11335E057D231103A94F1E04F1A51084114510462
S11335F079F7DEC0843611F0893631F5F80127FFFA
S113360007C060817181828193810C5F1F4F08C064
S113361060817181882777FD8095982F0E5F1F4FF9
S11336202F76B22E97FF09C090958095709561957D
S11336307F4F8F4F9F4F2068B22E2AE030E0A401C5
S113364059D2A82EA81843C0853729F42F7EB22E4C
S11336502AE030E025C0F22FF97FBF2E8F36C1F06B
S113366018F4883579F0ADC0803719F0883721F027
S1133670A8C02F2F2061B22EB4FE0DC08B2D846004
S1133680B82E09C024FF0AC09F2F9660B92E06C029
S113369028E030E005C020E130E002C020E132E063
S11336A0F801B7FE07C060817181828193810C5F4C
S11336B01F4F06C06081718180E090E00E5F1F4F54
S11336C0A40118D2A82EA818FB2DFF77BF2EB6FE92
S11336D00BC02B2D2E7FA51450F4B4FE0AC0B2FCEF
S11336E008C02B2D2E7E05C07A2C2B2D03C07A2CDE
S11336F001C0752C24FF0DC0FE01EA0DF11D80816F
S1133700803311F4297E09C022FF06C07394739498
S113371004C0822F867809F0739423FD12C020FF21
S113372006C05A2C731418F4530C5718732C7314C2
S113373060F4B70180E290E02C87AAD173942C85C1
S1133740F6CF731410F4371801C0312C24FF11C0C4
S1133750B70180E390E02C879BD12C8522FF16C013
S113376021FF03C088E590E002C088E790E0B7013C
S11337700CC0822F867851F021FD02C080E201C086
S11337808BE227FD8DE2B70190E082D1A51430F4DD
S1133790B70180E390E07CD15A94F8CFAA94F40165
S11337A0EA0DF11D8081B70190E072D1A110F6CF2E
S11337B0332009F45DCEB70180E290E069D13A94F8
S11337C0F7CFF7018681978102C08FEF9FEF2C9688
S11337D0E2E107C20F931F93CF93DF93869F80018B
S11337E0879F100D969F100D1124C8010DD0EC0178
S11337F0009721F0A80160E070E038D1CE01DF919C
S1133800CF911F910F910895CF93DF93823091054B
S113381010F482E090E0E0918523F091862320E08B
S113382030E0A0E0B0E0309739F140815181481791
S11338305907B8F04817590771F48281938110979A
S113384029F012968D939C9313972CC08093852313
S11338509093862327C02115310531F04217530771
S113386018F0A901DB0101C0EF019A01BD01DF01DC
S11338700280F381E02DD7CF21153105F9F0281B03
S1133880390B2430310580F48A819B8161157105DF
S113389021F0FB018283938304C08093852390935A
S11338A08623FE01329644C0FE01E20FF31F81938A
S11338B0919322503109288339833AC0209183237C
S11338C030918423232B41F4209102203091032052
S11338D0209383233093842320910020309101206E
S11338E02115310541F42DB73EB740910420509184
S11338F00520241B350BE0918323F0918423E217E8
S1133900F307A0F42E1B3F0B2817390778F0AC01FE
S11339104E5F5F4F2417350748F04E0F5F1F4093EB
S11339208323509384238193919302C0E0E0F0E0D9
S1133930CF01DF91CF910895CF93DF93009709F4DE
S113394087C0FC01329712821382C0918523D091E3
S11339508623209781F420813181280F391F80919B
S11339608323909184238217930779F5E09383232B
S1133970F09384236DC0DE0120E030E0AE17BF0772
S113398050F412964D915C9113979D014115510588
S113399009F1DA01F3CFA283B38340815181840F0B
S11339A0951F8A179B0771F48D919C911197840F31
S11339B0951F02968083918312968D919C91139703
S11339C0828393832115310529F4E0938523F093B1
S11339D086233EC0D9011296ED93FC9313974D9123
S11339E05D91A40FB51FEA17FB0779F480819181DB
S11339F0840F951F0296D9018D939C931197828110
S1133A00938112968D939C931397E0E0F0E08A8162
S1133A109B81009719F0FE01EC01F9CFCE010296CB
S1133A2028813981820F931F20918323309184232D
S1133A302817390769F4309729F4109285231092D6
S1133A40862302C012821382C0938323D0938423DB
S1133A50DF91CF910895FC010590615070400110F1
S1133A60D8F7809590958E0F9F1F0895DC0101C0B3
S1133A706D9341505040E0F70895FC01615070404F
S1133A8001900110D8F7809590958E0F9F1F08958F
S1133A900F931F93CF93DF93182F092FEB018B8183
S1133AA081FD03C08FEF9FEF20C082FF10C04E81C5
S1133AB05F812C813D81421753077CF4E881F981B1
S1133AC09F012F5F3F4F28833983108306C0E88509
S1133AD0F985812F0995892B29F72E813F812F5F45
S1133AE03F4F2E833F83812F902FDF91CF911F91E2
S1133AF00F910895FA01AA27283051F1203181F15C
S1133B00E8946F936E7F6E5F7F4F8F4F9F4FAF4FE1
S1133B10B1E03ED0B4E03CD0670F781F891F9A1FF4
S1133B20A11D680F791F8A1F911DA11D6A0F711DA8
S1133B30811D911DA11D20D009F468943F912AE0B4
S1133B40269F11243019305D3193DEF6CF0108959C
S1133B50462F4770405D4193B3E00FD0C9F7F6CFCD
S1133B60462F4F70405D4A3318F0495D31FD405295
S1133B70419302D0A9F7EACFB4E0A695979587952B
S1133B8077956795BA95C9F700976105710508950A
S1133B909B01AC010A2E06945795479537952795B6
S1133BA0BA95C9F7620F731F841F951FA01D08954E
S1133BB02F923F924F925F926F927F928F929F9239
S1133BC0AF92BF92CF92DF92EF92FF920F931F9327
S1133BD0CF93DF93CDB7DEB7CA1BDB0BCDBFDEBF00
S1133BE009942A88398848885F846E847D848C840B
S1133BF09B84AA84B984C884DF80EE80FD800C8114
S1133C001B81AA81B981CE0FD11DCDBFDEBFED01CD
S1093C100895F894FFCFB3
S1133C16000087232000641A01BA0002000800EAA3
S1133C26010607207D000E060C0400435055206C47
S1133C366F61640053616D706C696E670D0A25329D
S1133C46752C2530317573004C696768740025340A
S1133C56752C2530327573202D20253364206C692C
S1133C666768740D0A0025730053573120746F205A
S1133C76736B697020696E74726F00546865206492
S1133C86656D6F2067657473206C6967687400736B
S1133C96656E736F7220616E64206F7574707574CF
S1133CA673007468656D206F6E20444953502C2050
S1133CB6555341525400517561647261747572654D
S1133CC620656E636F646572006368616E67657311
S10D3CD62073616D706C696E670065
S9030000FC
