S01400005254435F4558414D504C45312E737265638B
S113000055C000006EC000006CC000006AC0000053
S113001068C0000066C0000064C0000056C1000053
S11300206DC100005EC000005CC000005AC000004A
S113003058C0000056C0000054C0000052C0000068
S113004050C000004EC000004CC000004AC0000078
S113005048C0000046C0000044C0000042C0000088
S113006040C000003EC000003CC000003AC0000098
S113007038C0000036C0000034C0000032C00000A8
S113008030C000002EC000002CC000002AC00000B8
S113009028C0000026C0000024C0000022C00000C8
S11300A020C000001EC000001CC0000011241FBEA0
S11300B0CFEFCDBFDFE2DEBF10E2A0E0B0E2E0E3CD
S11300C0F5E002C005900D92A630B107D9F720E201
S11300D0A6E0B0E201C01D92A431B207E1F7C4D199
S11300E025C28ECF8FEF8093700080937100809330
S11300F072008093730080937400809375008093E2
S1130100760081E0E0E4F0E0838308959FB7F894FB
S1130110E82FF0E0E059FF4F609580816823608309
S11301209FBF0895CF93DF93FC01709620E030E0E9
S1130130C62FD0E0DE01022E02C0B595A7950A9421
S1130140E2F7A0FD50832F5F3F4F319628303105F1
S113015089F740FF0AC041FF03C0FC01658302C068
S1130160FC016683FC01618302C0FC016283DF91B0
S1130170CF91089543E050E061E080E096E0D2DF63
S113018043E050E062E080E096E0CCDF43E050E002
S113019064E080E096E0C6DF43E050E068E080E0A1
S11301A096E0C0DF43E050E060E180E096E0BADF33
S11301B043E050E060E280E096E0B4DF43E050E0EA
S11301C060E480E096E0AEDF43E050E060E880E089
S11301D096E0A8DF40E05EE161E080E696E0A2DF21
S11301E040E05EE162E080E696E09CDF40E05EE1B4
S11301F064E080E696E096DF40E05EE168E080E659
S113020096E090CF08950F931F93E0E0F4E081818E
S113021080FDFDCF2FB7F89440910C2050910D2014
S1130220E0E0F4E080859185009729F4338130FF84
S113023002C04F5F5F4F2FBF60E070E0BA015527E7
S11302404427A0E0B0E08A019B01082B192B2A2B3C
S11302503B2BC901B8011F910F910895E0E0F4E030
S113026021E02283648775876093102070931120A6
S113027080930E2090930F20818180FDFDCFE0E0DC
S1130280F4E082E0838385E08283089580931220E2
S113029090931320089564E080E038DFE0E0F4E018
S11302A08FEF9FEF82879387108611868FB7F8941C
S11302B0E9E0F0E290819F5F90838FBFE0E0F4E09B
S11302C081E0828387E0808308951F920F920FB6A6
S11302D00F9211248F939F93EF93FF93ECE0F0E23E
S11302E080819181019680839183FF91EF919F9109
S11302F08F910F900FBE0F901F9018951F920F9221
S11303000FB60F921124CF92DF92EF92FF920F93C8
S11303101F932F933F934F935F936F937F938F9389
S11303209F93AF93BF93EF93FF9340910C20509111
S11303300D2080910E2090910F2048175907F0F15D
S113034081E0E0E0F4E08283E0911220F091132058
S11303503097A1F1A0E0B4E018968D919C91199783
S113036060E070E0BA0155274427A0E0B0E08A01BC
S11303709B01082B192B2A2B3B2BC901B801009197
S11303800E2010910F2020E030E098011127002763
S1130390C0901020D0901120E12CF12C0C291D29A3
S11303A02E293F29061717072807390730F0C901F6
S11303B0B8016F5F7F4F8F4F9F4F0995FF91EF916A
S11303C0BF91AF919F918F917F916F915F914F9169
S11303D03F912F911F910F91FF90EF90DF90CF905D
S11303E00F900FBE0F901F9018954F925F926F92CF
S11303F07F928F929F92AF92BF92CF92DF92EF92B1
S1130400FF926B017C012ADF0F2EFAE08F2E912CD4
S1130410A12CB12CF02DC701B601A501940164D023
S11304202B013C01C701B6016419750986099709B6
S1130430A501940159D0CA01B901A501940154D070
S11304406295607F462A4094E0E0F6E04482FF90A3
S1130450EF90DF90CF90BF90AF909F908F907F9060
S11304606F905F904F90089587E0E0EAF0E0828318
S113047081DE38DE109206201092072010920820A8
S11304801092092010920A2081E080930B2003DF50
S113049085EF91E0FBDE7894B6DEE0DEC6E0D0E2E4
S11304A087E090E2A8E4B0E0F8942881211107C025
S11304B0FC012F5F31913323E1F3211102C07894C1
S11304C0F3CF3C91E22FF0E0E150F04E232F217F57
S11304D03081232B2C932C9121602C937894889534
S11304E02C912E7F2C93E0CFA1E21A2EAA1BBB1BCA
S11304F0FD010DC0AA1FBB1FEE1FFF1FA217B307EC
S1130500E407F50720F0A21BB30BE40BF50B661F01
S1130510771F881F991F1A9469F7609570958095C5
S113052090959B01AC01BD01CF010895F894FFCFD4
S1090530000E060C04009D
S9030000FC
