S019000066696E616C5F626F6172645F66697273742E7372656313
S11300000C9456000C946B000C946B000C946B00D5
S11300100C946B000C946B000C946B000C946B00B0
S11300200C946B000C946B000C946B000C946B00A0
S11300300C946B000C946B000C946B000C946B0090
S11300400C946B000C946B000C946B000C946B0080
S11300500C946B000C946B000C946B000C946B0070
S11300600C946B000C946B000C946B000C946B0060
S11300700C946B000C946B000C946B000C946B0050
S11300800C946B000C946B000C946B000C946B0040
S11300900C946B000C946B000C946B000C946B0030
S11300A00C94FB000C946B000C946B0011241FBE89
S11300B0CFEFCDBFDFE2DEBF10E2A0E0B0E2EAE1C5
S11300C0F2E002C005900D92A830B107D9F70E9462
S11300D073000C940B010C940000E0E4F6E080EC57
S11300E0818386830895E0E5F0E0808182608083E7
S11300F0818181FFFDCF88ED84BF81E08093400042
S1130100E0E5F0E080818E7F80838081846080835D
S1130110818182FFFDCFE0E5F0E01682E0E6F0E0C9
S11301208081816080830E946D00E0EBF0E0848137
S1130130827F8160848380E8E0E4F6E08183E0E606
S1130140F6E081838583868580618687E0ECF9E02B
S11301508CE0868380E4878383818B7F83838381A0
S11301608861838383E084838481877F8483158289
S113017082818F7C80618283E0EAF0E08281816009
S11301808283789480E096E071E0072F22E030E2E9
S113019014E7E0ECF9E0C0E4D6E060E850E4DC0108
S11301A015960C93D901412F4083418145FD03C02D
S11301B0418146FFFDCF4181406441834D9141110E
S11301C0F3CFDC0116967C936D835E83BFEF47EA21
S11301D0A1E6B1504040A040E1F700C000006E83AA
S11301E05D83BFEF47EAA1E6B1504040A040E1F78C
S11301F000C00000D4CF1F920F920FB60F921124AB
S11302008F938091C009809300208F910F900FBE2F
S10D02100F901F901895F894FFCF8B
S10B021A2A746573740A0000E4
S9030000FC
